{
  "contractName": "PrisonersDilemma",
  "abi": [
    {
      "inputs": [],
      "stateMutability": "nonpayable",
      "type": "constructor"
    },
    {
      "anonymous": false,
      "inputs": [
        {
          "indexed": false,
          "internalType": "uint256",
          "name": "wagerA",
          "type": "uint256"
        },
        {
          "indexed": false,
          "internalType": "uint256",
          "name": "payoutA",
          "type": "uint256"
        },
        {
          "indexed": false,
          "internalType": "uint256",
          "name": "wagerB",
          "type": "uint256"
        },
        {
          "indexed": false,
          "internalType": "uint256",
          "name": "payoutB",
          "type": "uint256"
        }
      ],
      "name": "GameResult",
      "type": "event"
    },
    {
      "stateMutability": "payable",
      "type": "fallback",
      "payable": true
    },
    {
      "stateMutability": "payable",
      "type": "receive",
      "payable": true
    },
    {
      "inputs": [],
      "name": "getBalance",
      "outputs": [
        {
          "internalType": "uint256",
          "name": "",
          "type": "uint256"
        }
      ],
      "stateMutability": "view",
      "type": "function",
      "constant": true
    },
    {
      "inputs": [],
      "name": "destroy",
      "outputs": [],
      "stateMutability": "nonpayable",
      "type": "function"
    },
    {
      "inputs": [],
      "name": "getCommittedGames",
      "outputs": [
        {
          "components": [
            {
              "components": [
                {
                  "internalType": "address",
                  "name": "owner",
                  "type": "address"
                },
                {
                  "internalType": "uint256",
                  "name": "wager",
                  "type": "uint256"
                },
                {
                  "internalType": "bytes32",
                  "name": "hashed",
                  "type": "bytes32"
                },
                {
                  "internalType": "enum Move",
                  "name": "move",
                  "type": "uint8"
                }
              ],
              "internalType": "struct Commitment",
              "name": "a",
              "type": "tuple"
            },
            {
              "components": [
                {
                  "internalType": "address",
                  "name": "owner",
                  "type": "address"
                },
                {
                  "internalType": "uint256",
                  "name": "wager",
                  "type": "uint256"
                },
                {
                  "internalType": "bytes32",
                  "name": "hashed",
                  "type": "bytes32"
                },
                {
                  "internalType": "enum Move",
                  "name": "move",
                  "type": "uint8"
                }
              ],
              "internalType": "struct Commitment",
              "name": "b",
              "type": "tuple"
            },
            {
              "internalType": "bool",
              "name": "paid",
              "type": "bool"
            }
          ],
          "internalType": "struct Game[]",
          "name": "",
          "type": "tuple[]"
        }
      ],
      "stateMutability": "view",
      "type": "function",
      "constant": true
    },
    {
      "inputs": [],
      "name": "getCurrentGame",
      "outputs": [
        {
          "components": [
            {
              "components": [
                {
                  "internalType": "address",
                  "name": "owner",
                  "type": "address"
                },
                {
                  "internalType": "uint256",
                  "name": "wager",
                  "type": "uint256"
                },
                {
                  "internalType": "bytes32",
                  "name": "hashed",
                  "type": "bytes32"
                },
                {
                  "internalType": "enum Move",
                  "name": "move",
                  "type": "uint8"
                }
              ],
              "internalType": "struct Commitment",
              "name": "a",
              "type": "tuple"
            },
            {
              "components": [
                {
                  "internalType": "address",
                  "name": "owner",
                  "type": "address"
                },
                {
                  "internalType": "uint256",
                  "name": "wager",
                  "type": "uint256"
                },
                {
                  "internalType": "bytes32",
                  "name": "hashed",
                  "type": "bytes32"
                },
                {
                  "internalType": "enum Move",
                  "name": "move",
                  "type": "uint8"
                }
              ],
              "internalType": "struct Commitment",
              "name": "b",
              "type": "tuple"
            },
            {
              "internalType": "bool",
              "name": "paid",
              "type": "bool"
            }
          ],
          "internalType": "struct Game",
          "name": "",
          "type": "tuple"
        }
      ],
      "stateMutability": "view",
      "type": "function",
      "constant": true
    },
    {
      "inputs": [],
      "name": "getWorstCasePendingPayout",
      "outputs": [
        {
          "internalType": "uint256",
          "name": "",
          "type": "uint256"
        }
      ],
      "stateMutability": "view",
      "type": "function",
      "constant": true
    },
    {
      "inputs": [],
      "name": "getMaxWager",
      "outputs": [
        {
          "internalType": "uint256",
          "name": "",
          "type": "uint256"
        }
      ],
      "stateMutability": "view",
      "type": "function",
      "constant": true
    },
    {
      "inputs": [
        {
          "internalType": "enum Move",
          "name": "move",
          "type": "uint8"
        },
        {
          "internalType": "bytes32",
          "name": "nonce",
          "type": "bytes32"
        }
      ],
      "name": "hashMove",
      "outputs": [
        {
          "internalType": "bytes32",
          "name": "",
          "type": "bytes32"
        }
      ],
      "stateMutability": "pure",
      "type": "function",
      "constant": true
    },
    {
      "inputs": [
        {
          "internalType": "bytes32",
          "name": "commitmentHash",
          "type": "bytes32"
        }
      ],
      "name": "commit",
      "outputs": [],
      "stateMutability": "payable",
      "type": "function",
      "payable": true
    },
    {
      "inputs": [
        {
          "internalType": "enum Move",
          "name": "move",
          "type": "uint8"
        },
        {
          "internalType": "bytes32",
          "name": "nonce",
          "type": "bytes32"
        }
      ],
      "name": "reveal",
      "outputs": [],
      "stateMutability": "nonpayable",
      "type": "function"
    },
    {
      "inputs": [
        {
          "internalType": "enum Move",
          "name": "move",
          "type": "uint8"
        }
      ],
      "name": "playUnsafe",
      "outputs": [],
      "stateMutability": "payable",
      "type": "function",
      "payable": true
    },
    {
      "inputs": [],
      "name": "payout",
      "outputs": [],
      "stateMutability": "nonpayable",
      "type": "function"
    }
  ],
  "bytecode": "0x608060405234801561001057600080fd5b50336000806101000a81548173ffffffffffffffffffffffffffffffffffffffff021916908373ffffffffffffffffffffffffffffffffffffffff1602179055506121f7806100606000396000f3fe6080604052600436106100a05760003560e01c806383197ef01161006457806383197ef01461016d5780638ac4025914610184578063968d901b146101af578063bbf34edd146101da578063e47e934914610205578063f14fcbc814610230576100a7565b806312065fe0146100a957806314dac326146100d45780633afa29a4146100f05780633fc8ae061461012d57806363bd1d4a14610156576100a7565b366100a757005b005b3480156100b557600080fd5b506100be61024c565b6040516100cb9190611803565b60405180910390f35b6100ee60048036038101906100e99190611848565b610254565b005b3480156100fc57600080fd5b50610117600480360381019061011291906118ab565b6103fd565b60405161012491906118fa565b60405180910390f35b34801561013957600080fd5b50610154600480360381019061014f91906118ab565b610430565b005b34801561016257600080fd5b5061016b61072d565b005b34801561017957600080fd5b50610182610e0a565b005b34801561019057600080fd5b50610199610ed1565b6040516101a69190611803565b60405180910390f35b3480156101bb57600080fd5b506101c4610efe565b6040516101d19190611a9f565b60405180910390f35b3480156101e657600080fd5b506101ef6110a5565b6040516101fc9190611803565b60405180910390f35b34801561021157600080fd5b5061021a61116e565b6040516102279190611baf565b60405180910390f35b61024a60048036038101906102459190611bd1565b61135a565b005b600047905090565b6001600281111561026857610267611974565b5b81600281111561027b5761027a611974565b5b14806102aa575060028081111561029557610294611974565b5b8160028111156102a8576102a7611974565b5b145b6102e9576040517f08c379a00000000000000000000000000000000000000000000000000000000081526004016102e090611c5b565b60405180910390fd5b60008060001b905060006102fd83836103fd565b90506103088161135a565b3373ffffffffffffffffffffffffffffffffffffffff16600260000160000160009054906101000a900473ffffffffffffffffffffffffffffffffffffffff1673ffffffffffffffffffffffffffffffffffffffff16036103985782600260000160030160006101000a81548160ff0219169083600281111561038e5761038d611974565b5b02179055506103f8565b8260018080805490506103ab9190611caa565b815481106103bc576103bb611cde565b5b906000526020600020906009020160040160030160006101000a81548160ff021916908360028111156103f2576103f1611974565b5b02179055505b505050565b60008282604051602001610412929190611d64565b60405160208183030381529060405280519060200120905092915050565b6001600281111561044457610443611974565b5b82600281111561045757610456611974565b5b1480610486575060028081111561047157610470611974565b5b82600281111561048457610483611974565b5b145b6104c5576040517f08c379a00000000000000000000000000000000000000000000000000000000081526004016104bc90611ddc565b60405180910390fd5b60006104d183836103fd565b905060005b6001805490508110156106ed576000600182815481106104f9576104f8611cde565b5b906000526020600020906009020190503373ffffffffffffffffffffffffffffffffffffffff168160000160000160009054906101000a900473ffffffffffffffffffffffffffffffffffffffff1673ffffffffffffffffffffffffffffffffffffffff161480156105715750828160000160020154145b80156105b557506000600281111561058c5761058b611974565b5b8160000160030160009054906101000a900460ff1660028111156105b3576105b2611974565b5b145b156105f157848160000160030160006101000a81548160ff021916908360028111156105e4576105e3611974565b5b0217905550505050610729565b3373ffffffffffffffffffffffffffffffffffffffff168160040160000160009054906101000a900473ffffffffffffffffffffffffffffffffffffffff1673ffffffffffffffffffffffffffffffffffffffff161480156106595750828160040160020154145b801561069d57506000600281111561067457610673611974565b5b8160040160030160009054906101000a900460ff16600281111561069b5761069a611974565b5b145b156106d957848160040160030160006101000a81548160ff021916908360028111156106cc576106cb611974565b5b0217905550505050610729565b5080806106e590611dfc565b9150506104d6565b506040517f08c379a000000000000000000000000000000000000000000000000000000000815260040161072090611e90565b60405180910390fd5b5050565b60005b600180549050811015610dcc5760006001828154811061075357610752611cde565b5b906000526020600020906009020190508060080160009054906101000a900460ff168061083257503373ffffffffffffffffffffffffffffffffffffffff168160000160000160009054906101000a900473ffffffffffffffffffffffffffffffffffffffff1673ffffffffffffffffffffffffffffffffffffffff161415801561083157503373ffffffffffffffffffffffffffffffffffffffff168160040160000160009054906101000a900473ffffffffffffffffffffffffffffffffffffffff1673ffffffffffffffffffffffffffffffffffffffff1614155b5b1561083d5750610db9565b6000806001600281111561085457610853611974565b5b8360000160030160009054906101000a900460ff16600281111561087b5761087a611974565b5b1480156108c057506001600281111561089757610896611974565b5b8360040160030160009054906101000a900460ff1660028111156108be576108bd611974565b5b145b1561090e57600a600e84600001600101546108db9190611eb0565b6108e59190611f21565b9150600a600e84600401600101546108fd9190611eb0565b6109079190611f21565b9050610b7f565b60028081111561092157610920611974565b5b8360000160030160009054906101000a900460ff16600281111561094857610947611974565b5b14801561098d57506001600281111561096457610963611974565b5b8360040160030160009054906101000a900460ff16600281111561098b5761098a611974565b5b145b156109db57600a601184600001600101546109a89190611eb0565b6109b29190611f21565b9150600a600184600401600101546109ca9190611eb0565b6109d49190611f21565b9050610b7e565b600160028111156109ef576109ee611974565b5b8360000160030160009054906101000a900460ff166002811115610a1657610a15611974565b5b148015610a5a5750600280811115610a3157610a30611974565b5b8360040160030160009054906101000a900460ff166002811115610a5857610a57611974565b5b145b15610aa857600a60018460000160010154610a759190611eb0565b610a7f9190611f21565b9150600a60118460040160010154610a979190611eb0565b610aa19190611f21565b9050610b7d565b600280811115610abb57610aba611974565b5b8360000160030160009054906101000a900460ff166002811115610ae257610ae1611974565b5b148015610b265750600280811115610afd57610afc611974565b5b8360040160030160009054906101000a900460ff166002811115610b2457610b23611974565b5b145b15610b7457600a60088460000160010154610b419190611eb0565b610b4b9190611f21565b9150600a60088460040160010154610b639190611eb0565b610b6d9190611f21565b9050610b7c565b505050610db9565b5b5b5b60008360000160000160009054906101000a900473ffffffffffffffffffffffffffffffffffffffff1673ffffffffffffffffffffffffffffffffffffffff1683604051610bcc90611f83565b60006040518083038185875af1925050503d8060008114610c09576040519150601f19603f3d011682016040523d82523d6000602084013e610c0e565b606091505b50508091505080610c54576040517f08c379a0000000000000000000000000000000000000000000000000000000008152600401610c4b90611fe4565b60405180910390fd5b8360040160000160009054906101000a900473ffffffffffffffffffffffffffffffffffffffff1673ffffffffffffffffffffffffffffffffffffffff1682604051610c9f90611f83565b60006040518083038185875af1925050503d8060008114610cdc576040519150601f19603f3d011682016040523d82523d6000602084013e610ce1565b606091505b50508091505080610d27576040517f08c379a0000000000000000000000000000000000000000000000000000000008152600401610d1e90611fe4565b60405180910390fd5b7f761194fa446fafb6ac11f01511ce960b14977687362e6108784d27b86600f113846000016001015484866004016001015485604051610d6a9493929190612004565b60405180910390a16001808681548110610d8757610d86611cde565b5b906000526020600020906009020160080160006101000a81548160ff0219169083151502179055505050505050610e08565b8080610dc490611dfc565b915050610730565b506040517f08c379a0000000000000000000000000000000000000000000000000000000008152600401610dff90612095565b60405180910390fd5b565b60008054906101000a900473ffffffffffffffffffffffffffffffffffffffff1673ffffffffffffffffffffffffffffffffffffffff163373ffffffffffffffffffffffffffffffffffffffff1614610e98576040517f08c379a0000000000000000000000000000000000000000000000000000000008152600401610e8f90612101565b60405180910390fd5b60008054906101000a900473ffffffffffffffffffffffffffffffffffffffff1673ffffffffffffffffffffffffffffffffffffffff16ff5b6000600a610edd6110a5565b610ee561024c565b610eef9190611caa565b610ef99190611f21565b905090565b610f06611768565b6002604051806060016040529081600082016040518060800160405290816000820160009054906101000a900473ffffffffffffffffffffffffffffffffffffffff1673ffffffffffffffffffffffffffffffffffffffff1673ffffffffffffffffffffffffffffffffffffffff16815260200160018201548152602001600282015481526020016003820160009054906101000a900460ff166002811115610fb257610fb1611974565b5b6002811115610fc457610fc3611974565b5b815250508152602001600482016040518060800160405290816000820160009054906101000a900473ffffffffffffffffffffffffffffffffffffffff1673ffffffffffffffffffffffffffffffffffffffff1673ffffffffffffffffffffffffffffffffffffffff16815260200160018201548152602001600282015481526020016003820160009054906101000a900460ff16600281111561106b5761106a611974565b5b600281111561107d5761107c611974565b5b8152505081526020016008820160009054906101000a900460ff161515151581525050905090565b6000806002600401600101546002600001600101546110c49190612121565b905060005b60018054905081101561114e576000600182815481106110ec576110eb611cde565b5b906000526020600020906009020190508060080160009054906101000a900460ff1661113a578060040160010154816000016001015461112c9190612121565b836111379190612121565b92505b50808061114690611dfc565b9150506110c9565b50600a600e8261115e9190611eb0565b6111689190611f21565b91505090565b60606001805480602002602001604051908101604052809291908181526020016000905b828210156113515783829060005260206000209060090201604051806060016040529081600082016040518060800160405290816000820160009054906101000a900473ffffffffffffffffffffffffffffffffffffffff1673ffffffffffffffffffffffffffffffffffffffff1673ffffffffffffffffffffffffffffffffffffffff16815260200160018201548152602001600282015481526020016003820160009054906101000a900460ff16600281111561125457611253611974565b5b600281111561126657611265611974565b5b815250508152602001600482016040518060800160405290816000820160009054906101000a900473ffffffffffffffffffffffffffffffffffffffff1673ffffffffffffffffffffffffffffffffffffffff1673ffffffffffffffffffffffffffffffffffffffff16815260200160018201548152602001600282015481526020016003820160009054906101000a900460ff16600281111561130d5761130c611974565b5b600281111561131f5761131e611974565b5b8152505081526020016008820160009054906101000a900460ff16151515158152505081526020019060010190611192565b50505050905090565b611362610ed1565b3411156113a4576040517f08c379a000000000000000000000000000000000000000000000000000000000815260040161139b906121a1565b60405180910390fd5b600073ffffffffffffffffffffffffffffffffffffffff16600260000160000160009054906101000a900473ffffffffffffffffffffffffffffffffffffffff1673ffffffffffffffffffffffffffffffffffffffff16036114665733600260000160000160006101000a81548173ffffffffffffffffffffffffffffffffffffffff021916908373ffffffffffffffffffffffffffffffffffffffff1602179055508060026000016002018190555034600260000160010181905550611765565b33600260040160000160006101000a81548173ffffffffffffffffffffffffffffffffffffffff021916908373ffffffffffffffffffffffffffffffffffffffff160217905550806002600401600201819055503460026004016001018190555060016002908060018154018082558091505060019003906000526020600020906009020160009091909190915060008201816000016000820160009054906101000a900473ffffffffffffffffffffffffffffffffffffffff168160000160006101000a81548173ffffffffffffffffffffffffffffffffffffffff021916908373ffffffffffffffffffffffffffffffffffffffff16021790555060018201548160010155600282015481600201556003820160009054906101000a900460ff168160030160006101000a81548160ff021916908360028111156115af576115ae611974565b5b0217905550505060048201816004016000820160009054906101000a900473ffffffffffffffffffffffffffffffffffffffff168160000160006101000a81548173ffffffffffffffffffffffffffffffffffffffff021916908373ffffffffffffffffffffffffffffffffffffffff16021790555060018201548160010155600282015481600201556003820160009054906101000a900460ff168160030160006101000a81548160ff0219169083600281111561167157611670611974565b5b021790555050506008820160009054906101000a900460ff168160080160006101000a81548160ff021916908315150217905550505060026000808201600080820160006101000a81549073ffffffffffffffffffffffffffffffffffffffff0219169055600182016000905560028201600090556003820160006101000a81549060ff0219169055505060048201600080820160006101000a81549073ffffffffffffffffffffffffffffffffffffffff0219169055600182016000905560028201600090556003820160006101000a81549060ff021916905550506008820160006101000a81549060ff021916905550505b50565b604051806060016040528061177b611797565b8152602001611788611797565b81526020016000151581525090565b6040518060800160405280600073ffffffffffffffffffffffffffffffffffffffff1681526020016000815260200160008019168152602001600060028111156117e4576117e3611974565b5b81525090565b6000819050919050565b6117fd816117ea565b82525050565b600060208201905061181860008301846117f4565b92915050565b600080fd5b6003811061183057600080fd5b50565b60008135905061184281611823565b92915050565b60006020828403121561185e5761185d61181e565b5b600061186c84828501611833565b91505092915050565b6000819050919050565b61188881611875565b811461189357600080fd5b50565b6000813590506118a58161187f565b92915050565b600080604083850312156118c2576118c161181e565b5b60006118d085828601611833565b92505060206118e185828601611896565b9150509250929050565b6118f481611875565b82525050565b600060208201905061190f60008301846118eb565b92915050565b600073ffffffffffffffffffffffffffffffffffffffff82169050919050565b600061194082611915565b9050919050565b61195081611935565b82525050565b61195f816117ea565b82525050565b61196e81611875565b82525050565b7f4e487b7100000000000000000000000000000000000000000000000000000000600052602160045260246000fd5b600381106119b4576119b3611974565b5b50565b60008190506119c5826119a3565b919050565b60006119d5826119b7565b9050919050565b6119e5816119ca565b82525050565b608082016000820151611a016000850182611947565b506020820151611a146020850182611956565b506040820151611a276040850182611965565b506060820151611a3a60608501826119dc565b50505050565b60008115159050919050565b611a5581611a40565b82525050565b61012082016000820151611a7260008501826119eb565b506020820151611a8560808501826119eb565b506040820151611a99610100850182611a4c565b50505050565b600061012082019050611ab56000830184611a5b565b92915050565b600081519050919050565b600082825260208201905092915050565b6000819050602082019050919050565b61012082016000820151611afe60008501826119eb565b506020820151611b1160808501826119eb565b506040820151611b25610100850182611a4c565b50505050565b6000611b378383611ae7565b6101208301905092915050565b6000602082019050919050565b6000611b5c82611abb565b611b668185611ac6565b9350611b7183611ad7565b8060005b83811015611ba2578151611b898882611b2b565b9750611b9483611b44565b925050600181019050611b75565b5085935050505092915050565b60006020820190508181036000830152611bc98184611b51565b905092915050565b600060208284031215611be757611be661181e565b5b6000611bf584828501611896565b91505092915050565b600082825260208201905092915050565b7f706c6179556e736166653a20696e76616c6964206d6f76650000000000000000600082015250565b6000611c45601883611bfe565b9150611c5082611c0f565b602082019050919050565b60006020820190508181036000830152611c7481611c38565b9050919050565b7f4e487b7100000000000000000000000000000000000000000000000000000000600052601160045260246000fd5b6000611cb5826117ea565b9150611cc0836117ea565b9250828203905081811115611cd857611cd7611c7b565b5b92915050565b7f4e487b7100000000000000000000000000000000000000000000000000000000600052603260045260246000fd5b60008160f81b9050919050565b6000611d2582611d0d565b9050919050565b611d3d611d38826119ca565b611d1a565b82525050565b6000819050919050565b611d5e611d5982611875565b611d43565b82525050565b6000611d708285611d2c565b600182019150611d808284611d4d565b6020820191508190509392505050565b7f72657665616c3a20696e76616c6964206d6f7665000000000000000000000000600082015250565b6000611dc6601483611bfe565b9150611dd182611d90565b602082019050919050565b60006020820190508181036000830152611df581611db9565b9050919050565b6000611e07826117ea565b91507fffffffffffffffffffffffffffffffffffffffffffffffffffffffffffffffff8203611e3957611e38611c7b565b5b600182019050919050565b7f72657665616c3a206e6f206d61746368696e672067616d6520666f756e640000600082015250565b6000611e7a601e83611bfe565b9150611e8582611e44565b602082019050919050565b60006020820190508181036000830152611ea981611e6d565b9050919050565b6000611ebb826117ea565b9150611ec6836117ea565b9250828202611ed4816117ea565b91508282048414831517611eeb57611eea611c7b565b5b5092915050565b7f4e487b7100000000000000000000000000000000000000000000000000000000600052601260045260246000fd5b6000611f2c826117ea565b9150611f37836117ea565b925082611f4757611f46611ef2565b5b828204905092915050565b600081905092915050565b50565b6000611f6d600083611f52565b9150611f7882611f5d565b600082019050919050565b6000611f8e82611f60565b9150819050919050565b7f7478206661696c65640000000000000000000000000000000000000000000000600082015250565b6000611fce600983611bfe565b9150611fd982611f98565b602082019050919050565b60006020820190508181036000830152611ffd81611fc1565b9050919050565b600060808201905061201960008301876117f4565b61202660208301866117f4565b61203360408301856117f4565b61204060608301846117f4565b95945050505050565b7f7061796f75743a206e6f206d61746368696e672067616d6520666f756e640000600082015250565b600061207f601e83611bfe565b915061208a82612049565b602082019050919050565b600060208201905081810360008301526120ae81612072565b9050919050565b7f6f776e6572206f6e6c7900000000000000000000000000000000000000000000600082015250565b60006120eb600a83611bfe565b91506120f6826120b5565b602082019050919050565b6000602082019050818103600083015261211a816120de565b9050919050565b600061212c826117ea565b9150612137836117ea565b925082820190508082111561214f5761214e611c7b565b5b92915050565b7f636f6d6d69743a20776167657220746f6f206869676800000000000000000000600082015250565b600061218b601683611bfe565b915061219682612155565b602082019050919050565b600060208201905081810360008301526121ba8161217e565b905091905056fea26469706673582212201ab755e7b676e97b730e937e5fff8aa0163e61cff3c5dfdf973100b2f9d382eb64736f6c63430008110033",
  "immutableReferences": {},
  "source": "// SPDX-License-Identifier: MIT\npragma solidity >=0.4.22 <0.9.0;\n\nenum Move {\n  Hidden,\n  StaySilent,\n  Defect\n}\n\nstruct Commitment {\n  address owner;\n  uint wager;\n  bytes32 hashed;\n  Move move;\n}\n\nstruct Game {\n  Commitment a;\n  Commitment b;\n  bool paid;\n}\n\ncontract PrisonersDilemma {\n  address owner;\n\n  Game[] committedGames;\n  Game currentGame;\n\n  constructor() {\n    owner = msg.sender;\n  }\n\n  receive() external payable { }\n\n  fallback() external payable { }\n\n  function getBalance() public view returns (uint) {\n    return address(this).balance;\n  }\n\n  function destroy() public {\n    if(msg.sender != owner) {\n      revert (\"owner only\");\n    }\n    selfdestruct(payable(owner));\n  }\n\n  function getCommittedGames() public view returns(Game[] memory) {\n    return committedGames;\n  }\n\n  function getCurrentGame() public view returns(Game memory) {\n    return currentGame;\n  }\n\n  function getWorstCasePendingPayout() public view returns(uint) {\n    uint pending = currentGame.a.wager + currentGame.b.wager;\n    for(uint i = 0; i < committedGames.length; i++) {\n      Game storage g = committedGames[i];\n      if(!g.paid) {\n        pending += g.a.wager + g.b.wager;\n      }\n    }\n    // worst case everybody cooperates\n    return pending * 14 / 10;\n  }\n\n  function getMaxWager() public view returns(uint) {\n    return (getBalance() - getWorstCasePendingPayout()) / 10;\n  }\n  \n  function hashMove(Move move, bytes32 nonce) public pure returns(bytes32) {\n    return keccak256(abi.encodePacked(move, nonce));\n  }\n\n  function commit(bytes32 commitmentHash) public payable {\n    if(msg.value > getMaxWager()) {\n      revert(\"commit: wager too high\");\n    }\n\n    if(currentGame.a.owner == address(0)) {\n      currentGame.a.owner = msg.sender;\n      currentGame.a.hashed = commitmentHash;\n      currentGame.a.wager = msg.value;\n    }\n    else {\n      currentGame.b.owner = msg.sender;\n      currentGame.b.hashed = commitmentHash;\n      currentGame.b.wager = msg.value;\n\n      committedGames.push(currentGame);\n\n      delete currentGame;\n    }\n  }\n\n  function reveal(Move move, bytes32 nonce) public {\n    \n    if(!(move == Move.StaySilent || move == Move.Defect)) {\n      revert (\"reveal: invalid move\");\n    }\n\n    bytes32 h = hashMove(move, nonce);\n\n    for(uint i = 0; i < committedGames.length; i++) {\n\n      Game storage g = committedGames[i];\n      \n      if(g.a.owner == msg.sender && g.a.hashed == h && g.a.move == Move.Hidden) {\n        g.a.move = move;\n        return;\n      }\n      if(g.b.owner == msg.sender && g.b.hashed == h && g.b.move == Move.Hidden) {\n        g.b.move = move;\n        return;\n      }\n    }\n\n    revert (\"reveal: no matching game found\");\n  }\n\n  function playUnsafe(Move move) public payable {\n    if(!(move == Move.StaySilent || move == Move.Defect)) {\n      revert (\"playUnsafe: invalid move\");\n    }\n\n    bytes32 defaultNonce = 0;\n    bytes32 h = hashMove(move, defaultNonce);\n    \n    commit(h);\n    if(currentGame.a.owner == msg.sender) {\n      currentGame.a.move = move;\n    }\n    else {\n      committedGames[committedGames.length - 1].b.move = move;\n    }\n  }\n\n  event GameResult(uint wagerA, uint payoutA, uint wagerB, uint payoutB);\n\n  function payout() public {\n\n    for(uint i = 0; i < committedGames.length; i++) {\n      Game storage g = committedGames[i];\n\n      if(g.paid || (g.a.owner != msg.sender && g.b.owner != msg.sender)) {\n        continue;\n      }\n\n      uint amountA;\n      uint amountB;\n\n      if(g.a.move == Move.StaySilent && g.b.move == Move.StaySilent) {\n        amountA = g.a.wager * 14 / 10;\n        amountB = g.b.wager * 14 / 10;\n      }\n      else if(g.a.move == Move.Defect && g.b.move == Move.StaySilent) {\n        amountA = g.a.wager * 17 / 10;\n        amountB = g.b.wager *  1 / 10;\n      }\n      else if(g.a.move == Move.StaySilent && g.b.move == Move.Defect) {\n        amountA = g.a.wager *  1 / 10;\n        amountB = g.b.wager * 17 / 10;\n      }\n      else if(g.a.move == Move.Defect && g.b.move == Move.Defect) {\n        amountA = g.a.wager *  8 / 10;\n        amountB = g.b.wager *  8 / 10;\n      }\n      else {\n        continue;\n      }\n\n      bool success;\n\n      (success, ) = payable(g.a.owner).call { value: amountA }(\"\");\n      require (success, \"tx failed\");\n      (success, ) = payable(g.b.owner).call { value: amountB }(\"\");\n      require (success, \"tx failed\");\n      \n      emit GameResult(g.a.wager, amountA, g.b.wager, amountB);\n\n      // ideally delete from the array instead but it was buggy idk\n      committedGames[i].paid = true; \n      return;\n    }\n    revert ('payout: no matching game found');\n  }\n}\n",
  "sourcePath": "C:\\Users\\Jeremias\\Desktop\\FH\\S5\\blockchain\\project\\contracts\\PrisonersDilemma.sol",
  "compiler": {
    "name": "solc",
    "version": "0.8.17+commit.8df45f5f.Emscripten.clang"
  },
  "schemaVersion": "3.4.11",
  "updatedAt": "2022-12-16T00:32:04.649Z",
  "networkType": "ethereum",
  "devdoc": {
    "kind": "dev",
    "methods": {},
    "version": 1
  },
  "userdoc": {
    "kind": "user",
    "methods": {},
    "version": 1
  }
}